{
  "_format": "hh-sol-artifact-1",
  "contractName": "BreakfastCollectionNFT",
  "sourceName": "contracts/BreakfastCollectionNFT.sol",
  "abi": [
    {
      "inputs": [],
      "stateMutability": "nonpayable",
      "type": "constructor"
    },
    {
      "anonymous": false,
      "inputs": [
        {
          "indexed": true,
          "internalType": "address",
          "name": "owner",
          "type": "address"
        },
        {
          "indexed": true,
          "internalType": "address",
          "name": "approved",
          "type": "address"
        },
        {
          "indexed": true,
          "internalType": "uint256",
          "name": "tokenId",
          "type": "uint256"
        }
      ],
      "name": "Approval",
      "type": "event"
    },
    {
      "anonymous": false,
      "inputs": [
        {
          "indexed": true,
          "internalType": "address",
          "name": "owner",
          "type": "address"
        },
        {
          "indexed": true,
          "internalType": "address",
          "name": "operator",
          "type": "address"
        },
        {
          "indexed": false,
          "internalType": "bool",
          "name": "approved",
          "type": "bool"
        }
      ],
      "name": "ApprovalForAll",
      "type": "event"
    },
    {
      "anonymous": false,
      "inputs": [
        {
          "indexed": false,
          "internalType": "address",
          "name": "sender",
          "type": "address"
        },
        {
          "indexed": false,
          "internalType": "uint256",
          "name": "tokenId",
          "type": "uint256"
        }
      ],
      "name": "NewBreakfastCollectionNFTMinted",
      "type": "event"
    },
    {
      "anonymous": false,
      "inputs": [
        {
          "indexed": true,
          "internalType": "address",
          "name": "from",
          "type": "address"
        },
        {
          "indexed": true,
          "internalType": "address",
          "name": "to",
          "type": "address"
        },
        {
          "indexed": true,
          "internalType": "uint256",
          "name": "tokenId",
          "type": "uint256"
        }
      ],
      "name": "Transfer",
      "type": "event"
    },
    {
      "inputs": [
        {
          "internalType": "address",
          "name": "to",
          "type": "address"
        },
        {
          "internalType": "uint256",
          "name": "tokenId",
          "type": "uint256"
        }
      ],
      "name": "approve",
      "outputs": [],
      "stateMutability": "nonpayable",
      "type": "function"
    },
    {
      "inputs": [
        {
          "internalType": "address",
          "name": "owner",
          "type": "address"
        }
      ],
      "name": "balanceOf",
      "outputs": [
        {
          "internalType": "uint256",
          "name": "",
          "type": "uint256"
        }
      ],
      "stateMutability": "view",
      "type": "function"
    },
    {
      "inputs": [
        {
          "internalType": "uint256",
          "name": "tokenId",
          "type": "uint256"
        }
      ],
      "name": "getApproved",
      "outputs": [
        {
          "internalType": "address",
          "name": "",
          "type": "address"
        }
      ],
      "stateMutability": "view",
      "type": "function"
    },
    {
      "inputs": [
        {
          "internalType": "address",
          "name": "owner",
          "type": "address"
        },
        {
          "internalType": "address",
          "name": "operator",
          "type": "address"
        }
      ],
      "name": "isApprovedForAll",
      "outputs": [
        {
          "internalType": "bool",
          "name": "",
          "type": "bool"
        }
      ],
      "stateMutability": "view",
      "type": "function"
    },
    {
      "inputs": [],
      "name": "makeNFT",
      "outputs": [],
      "stateMutability": "nonpayable",
      "type": "function"
    },
    {
      "inputs": [],
      "name": "name",
      "outputs": [
        {
          "internalType": "string",
          "name": "",
          "type": "string"
        }
      ],
      "stateMutability": "view",
      "type": "function"
    },
    {
      "inputs": [
        {
          "internalType": "uint256",
          "name": "tokenId",
          "type": "uint256"
        }
      ],
      "name": "ownerOf",
      "outputs": [
        {
          "internalType": "address",
          "name": "",
          "type": "address"
        }
      ],
      "stateMutability": "view",
      "type": "function"
    },
    {
      "inputs": [
        {
          "internalType": "uint256",
          "name": "tokenId",
          "type": "uint256"
        }
      ],
      "name": "pickRandomFirstWord",
      "outputs": [
        {
          "internalType": "string",
          "name": "",
          "type": "string"
        }
      ],
      "stateMutability": "view",
      "type": "function"
    },
    {
      "inputs": [
        {
          "internalType": "uint256",
          "name": "tokenId",
          "type": "uint256"
        }
      ],
      "name": "pickRandomSecondWord",
      "outputs": [
        {
          "internalType": "string",
          "name": "",
          "type": "string"
        }
      ],
      "stateMutability": "view",
      "type": "function"
    },
    {
      "inputs": [
        {
          "internalType": "uint256",
          "name": "tokenId",
          "type": "uint256"
        }
      ],
      "name": "pickRandomThirdWord",
      "outputs": [
        {
          "internalType": "string",
          "name": "",
          "type": "string"
        }
      ],
      "stateMutability": "view",
      "type": "function"
    },
    {
      "inputs": [
        {
          "internalType": "address",
          "name": "from",
          "type": "address"
        },
        {
          "internalType": "address",
          "name": "to",
          "type": "address"
        },
        {
          "internalType": "uint256",
          "name": "tokenId",
          "type": "uint256"
        }
      ],
      "name": "safeTransferFrom",
      "outputs": [],
      "stateMutability": "nonpayable",
      "type": "function"
    },
    {
      "inputs": [
        {
          "internalType": "address",
          "name": "from",
          "type": "address"
        },
        {
          "internalType": "address",
          "name": "to",
          "type": "address"
        },
        {
          "internalType": "uint256",
          "name": "tokenId",
          "type": "uint256"
        },
        {
          "internalType": "bytes",
          "name": "_data",
          "type": "bytes"
        }
      ],
      "name": "safeTransferFrom",
      "outputs": [],
      "stateMutability": "nonpayable",
      "type": "function"
    },
    {
      "inputs": [
        {
          "internalType": "address",
          "name": "operator",
          "type": "address"
        },
        {
          "internalType": "bool",
          "name": "approved",
          "type": "bool"
        }
      ],
      "name": "setApprovalForAll",
      "outputs": [],
      "stateMutability": "nonpayable",
      "type": "function"
    },
    {
      "inputs": [
        {
          "internalType": "bytes4",
          "name": "interfaceId",
          "type": "bytes4"
        }
      ],
      "name": "supportsInterface",
      "outputs": [
        {
          "internalType": "bool",
          "name": "",
          "type": "bool"
        }
      ],
      "stateMutability": "view",
      "type": "function"
    },
    {
      "inputs": [],
      "name": "symbol",
      "outputs": [
        {
          "internalType": "string",
          "name": "",
          "type": "string"
        }
      ],
      "stateMutability": "view",
      "type": "function"
    },
    {
      "inputs": [
        {
          "internalType": "uint256",
          "name": "tokenId",
          "type": "uint256"
        }
      ],
      "name": "tokenURI",
      "outputs": [
        {
          "internalType": "string",
          "name": "",
          "type": "string"
        }
      ],
      "stateMutability": "view",
      "type": "function"
    },
    {
      "inputs": [
        {
          "internalType": "address",
          "name": "from",
          "type": "address"
        },
        {
          "internalType": "address",
          "name": "to",
          "type": "address"
        },
        {
          "internalType": "uint256",
          "name": "tokenId",
          "type": "uint256"
        }
      ],
      "name": "transferFrom",
      "outputs": [],
      "stateMutability": "nonpayable",
      "type": "function"
    }
  ],
  "bytecode": "0x608060405260405180610160016040528061012f8152602001620047f461012f9139600890805190602001906200003892919062000c63565b50604051806101e001604052806040518060400160405280600681526020017f45786f746963000000000000000000000000000000000000000000000000000081525081526020016040518060400160405280600981526020017f537061726b6c696e67000000000000000000000000000000000000000000000081525081526020016040518060400160405280600481526020017f526172650000000000000000000000000000000000000000000000000000000081525081526020016040518060400160405280600981526020017f496e76697369626c65000000000000000000000000000000000000000000000081525081526020016040518060400160405280600481526020017f57696c640000000000000000000000000000000000000000000000000000000081525081526020016040518060400160405280600b81526020017f50726574656e74696f757300000000000000000000000000000000000000000081525081526020016040518060400160405280600981526020017f457870656e73697665000000000000000000000000000000000000000000000081525081526020016040518060400160405280600481526020017f457069630000000000000000000000000000000000000000000000000000000081525081526020016040518060400160405280600581526020017f47726f737300000000000000000000000000000000000000000000000000000081525081526020016040518060400160405280600681526020017f547269707079000000000000000000000000000000000000000000000000000081525081526020016040518060400160405280600681526020017f466c75666679000000000000000000000000000000000000000000000000000081525081526020016040518060400160405280600581526020017f4c6173657200000000000000000000000000000000000000000000000000000081525081526020016040518060400160405280600c81526020017f436f6d7075746572697a6564000000000000000000000000000000000000000081525081526020016040518060400160405280600581526020017f4d616e696300000000000000000000000000000000000000000000000000000081525081526020016040518060400160405280600681526020017f546f756368790000000000000000000000000000000000000000000000000000815250815250600990600f620003ca92919062000cf4565b50604051806101c001604052806040518060400160405280600581526020017f5374616c6500000000000000000000000000000000000000000000000000000081525081526020016040518060400160405280600581526020017f536c696d7900000000000000000000000000000000000000000000000000000081525081526020016040518060400160405280600681526020017f537972757079000000000000000000000000000000000000000000000000000081525081526020016040518060400160405280600881526020017f427574746572656400000000000000000000000000000000000000000000000081525081526020016040518060400160405280600a81526020017f48616c662d656174656e0000000000000000000000000000000000000000000081525081526020016040518060400160405280600581526020017f4275726e7400000000000000000000000000000000000000000000000000000081525081526020016040518060400160405280600a81526020017f43686f636f6c617465790000000000000000000000000000000000000000000081525081526020016040518060400160405280600781526020017f447275676765640000000000000000000000000000000000000000000000000081525081526020016040518060400160405280600581526020017f476c61737300000000000000000000000000000000000000000000000000000081525081526020016040518060400160405280600781526020017f4469616d6f6e640000000000000000000000000000000000000000000000000081525081526020016040518060400160405280600681526020017f507574726964000000000000000000000000000000000000000000000000000081525081526020016040518060400160405280600881526020017f456d62616c6d656400000000000000000000000000000000000000000000000081525081526020016040518060400160405280600a81526020017f537472617762657272790000000000000000000000000000000000000000000081525081526020016040518060400160405280600581526020017f53746f6e65000000000000000000000000000000000000000000000000000000815250815250600a90600e6200072192919062000d5b565b50604051806101e001604052806040518060400160405280600781526020017f50616e63616b650000000000000000000000000000000000000000000000000081525081526020016040518060400160405280600681526020017f576166666c65000000000000000000000000000000000000000000000000000081525081526020016040518060400160405280600581526020017f53636f6e6500000000000000000000000000000000000000000000000000000081525081526020016040518060400160405280600581526020017f437265706500000000000000000000000000000000000000000000000000000081525081526020016040518060400160405280600881526020017f4f6d656c6574746500000000000000000000000000000000000000000000000081525081526020016040518060400160405280600681526020017f43657265616c000000000000000000000000000000000000000000000000000081525081526020016040518060400160405280600781526020017f4f61746d65616c0000000000000000000000000000000000000000000000000081525081526020016040518060400160405280600781526020017f41766f6361646f0000000000000000000000000000000000000000000000000081525081526020016040518060400160405280600581526020017f546f61737400000000000000000000000000000000000000000000000000000081525081526020016040518060400160405280600a81526020017f43726f697373616e74730000000000000000000000000000000000000000000081525081526020016040518060400160405280600581526020017f477269747300000000000000000000000000000000000000000000000000000081525081526020016040518060400160405280600681526020017f4d756666696e000000000000000000000000000000000000000000000000000081525081526020016040518060400160405280600781526020017f426973637569740000000000000000000000000000000000000000000000000081525081526020016040518060400160405280600581526020017f426167656c00000000000000000000000000000000000000000000000000000081525081526020016040518060400160405280600581526020017f4261636f6e000000000000000000000000000000000000000000000000000000815250815250600b90600f62000ab392919062000cf4565b5034801562000ac157600080fd5b506040518060400160405280601481526020017f427265616b6661737420436f6c6c656374696f6e0000000000000000000000008152506040518060400160405280600781526020017f4177207969737300000000000000000000000000000000000000000000000000815250816000908051906020019062000b4692919062000c63565b50806001908051906020019062000b5f92919062000c63565b50505062000b91604051806060016040528060248152602001620047d06024913962000b9760201b620012291760201c565b62000f7c565b62000c378160405160240162000bae919062000e90565b6040516020818303038152906040527f41304fac000000000000000000000000000000000000000000000000000000007bffffffffffffffffffffffffffffffffffffffffffffffffffffffff19166020820180517bffffffffffffffffffffffffffffffffffffffffffffffffffffffff838183161783525050505062000c3a60201b60201c565b50565b60008151905060006a636f6e736f6c652e6c6f679050602083016000808483855afa5050505050565b82805462000c719062000f06565b90600052602060002090601f01602090048101928262000c95576000855562000ce1565b82601f1062000cb057805160ff191683800117855562000ce1565b8280016001018555821562000ce1579182015b8281111562000ce057825182559160200191906001019062000cc3565b5b50905062000cf0919062000dc2565b5090565b82805482825590600052602060002090810192821562000d48579160200282015b8281111562000d4757825182908051906020019062000d3692919062000c63565b509160200191906001019062000d15565b5b50905062000d57919062000de1565b5090565b82805482825590600052602060002090810192821562000daf579160200282015b8281111562000dae57825182908051906020019062000d9d92919062000c63565b509160200191906001019062000d7c565b5b50905062000dbe919062000de1565b5090565b5b8082111562000ddd57600081600090555060010162000dc3565b5090565b5b8082111562000e05576000818162000dfb919062000e09565b5060010162000de2565b5090565b50805462000e179062000f06565b6000825580601f1062000e2b575062000e4c565b601f01602090049060005260206000209081019062000e4b919062000dc2565b5b50565b600062000e5c8262000eb4565b62000e68818562000ebf565b935062000e7a81856020860162000ed0565b62000e858162000f6b565b840191505092915050565b6000602082019050818103600083015262000eac818462000e4f565b905092915050565b600081519050919050565b600082825260208201905092915050565b60005b8381101562000ef057808201518184015260208101905062000ed3565b8381111562000f00576000848401525b50505050565b6000600282049050600182168062000f1f57607f821691505b6020821081141562000f365762000f3562000f3c565b5b50919050565b7f4e487b7100000000000000000000000000000000000000000000000000000000600052602260045260246000fd5b6000601f19601f8301169050919050565b6138448062000f8c6000396000f3fe608060405234801561001057600080fd5b506004361061010b5760003560e01c806370a08231116100a2578063b187301f11610071578063b187301f146102b6578063b88d4fde146102e6578063c575757a14610302578063c87b56dd14610332578063e985e9c5146103625761010b565b806370a082311461024257806395d89b4114610272578063a22cb46514610290578063b036b4bd146102ac5761010b565b806323b872dd116100de57806323b872dd146101aa5780632de38d68146101c657806342842e0e146101f65780636352211e146102125761010b565b806301ffc9a71461011057806306fdde0314610140578063081812fc1461015e578063095ea7b31461018e575b600080fd5b61012a600480360381019061012591906124bc565b610392565b60405161013791906130b8565b60405180910390f35b610148610474565b60405161015591906130d3565b60405180910390f35b6101786004803603810190610173919061250e565b610506565b6040516101859190613028565b60405180910390f35b6101a860048036038101906101a39190612480565b61058b565b005b6101c460048036038101906101bf919061237a565b6106a3565b005b6101e060048036038101906101db919061250e565b610703565b6040516101ed91906130d3565b60405180910390f35b610210600480360381019061020b919061237a565b610821565b005b61022c6004803603810190610227919061250e565b610841565b6040516102399190613028565b60405180910390f35b61025c60048036038101906102579190612315565b6108f3565b6040516102699190613333565b60405180910390f35b61027a6109ab565b60405161028791906130d3565b60405180910390f35b6102aa60048036038101906102a59190612444565b610a3d565b005b6102b4610bbe565b005b6102d060048036038101906102cb919061250e565b610da5565b6040516102dd91906130d3565b60405180910390f35b61030060048036038101906102fb91906123c9565b610ec3565b005b61031c6004803603810190610317919061250e565b610f25565b60405161032991906130d3565b60405180910390f35b61034c6004803603810190610347919061250e565b611043565b60405161035991906130d3565b60405180910390f35b61037c6004803603810190610377919061233e565b611195565b60405161038991906130b8565b60405180910390f35b60007f80ac58cd000000000000000000000000000000000000000000000000000000007bffffffffffffffffffffffffffffffffffffffffffffffffffffffff1916827bffffffffffffffffffffffffffffffffffffffffffffffffffffffff1916148061045d57507f5b5e139f000000000000000000000000000000000000000000000000000000007bffffffffffffffffffffffffffffffffffffffffffffffffffffffff1916827bffffffffffffffffffffffffffffffffffffffffffffffffffffffff1916145b8061046d575061046c826112c2565b5b9050919050565b606060008054610483906135d2565b80601f01602080910402602001604051908101604052809291908181526020018280546104af906135d2565b80156104fc5780601f106104d1576101008083540402835291602001916104fc565b820191906000526020600020905b8154815290600101906020018083116104df57829003601f168201915b5050505050905090565b60006105118261132c565b610550576040517f08c379a000000000000000000000000000000000000000000000000000000000815260040161054790613293565b60405180910390fd5b6004600083815260200190815260200160002060009054906101000a900473ffffffffffffffffffffffffffffffffffffffff169050919050565b600061059682610841565b90508073ffffffffffffffffffffffffffffffffffffffff168373ffffffffffffffffffffffffffffffffffffffff161415610607576040517f08c379a00000000000000000000000000000000000000000000000000000000081526004016105fe906132f3565b60405180910390fd5b8073ffffffffffffffffffffffffffffffffffffffff16610626611398565b73ffffffffffffffffffffffffffffffffffffffff16148061065557506106548161064f611398565b611195565b5b610694576040517f08c379a000000000000000000000000000000000000000000000000000000000815260040161068b906131d3565b60405180910390fd5b61069e83836113a0565b505050565b6106b46106ae611398565b82611459565b6106f3576040517f08c379a00000000000000000000000000000000000000000000000000000000081526004016106ea90613313565b60405180910390fd5b6106fe838383611537565b505050565b6060600061073761071384611793565b6040516020016107239190612fe4565b604051602081830303815290604052611940565b90506009805490508161074a919061364d565b905060098181548110610786577f4e487b7100000000000000000000000000000000000000000000000000000000600052603260045260246000fd5b90600052602060002001805461079b906135d2565b80601f01602080910402602001604051908101604052809291908181526020018280546107c7906135d2565b80156108145780601f106107e957610100808354040283529160200191610814565b820191906000526020600020905b8154815290600101906020018083116107f757829003601f168201915b5050505050915050919050565b61083c83838360405180602001604052806000815250610ec3565b505050565b6000806002600084815260200190815260200160002060009054906101000a900473ffffffffffffffffffffffffffffffffffffffff169050600073ffffffffffffffffffffffffffffffffffffffff168173ffffffffffffffffffffffffffffffffffffffff1614156108ea576040517f08c379a00000000000000000000000000000000000000000000000000000000081526004016108e190613213565b60405180910390fd5b80915050919050565b60008073ffffffffffffffffffffffffffffffffffffffff168273ffffffffffffffffffffffffffffffffffffffff161415610964576040517f08c379a000000000000000000000000000000000000000000000000000000000815260040161095b906131f3565b60405180910390fd5b600360008373ffffffffffffffffffffffffffffffffffffffff1673ffffffffffffffffffffffffffffffffffffffff168152602001908152602001600020549050919050565b6060600180546109ba906135d2565b80601f01602080910402602001604051908101604052809291908181526020018280546109e6906135d2565b8015610a335780601f10610a0857610100808354040283529160200191610a33565b820191906000526020600020905b815481529060010190602001808311610a1657829003601f168201915b5050505050905090565b610a45611398565b73ffffffffffffffffffffffffffffffffffffffff168273ffffffffffffffffffffffffffffffffffffffff161415610ab3576040517f08c379a0000000000000000000000000000000000000000000000000000000008152600401610aaa90613193565b60405180910390fd5b8060056000610ac0611398565b73ffffffffffffffffffffffffffffffffffffffff1673ffffffffffffffffffffffffffffffffffffffff16815260200190815260200160002060008473ffffffffffffffffffffffffffffffffffffffff1673ffffffffffffffffffffffffffffffffffffffff16815260200190815260200160002060006101000a81548160ff0219169083151502179055508173ffffffffffffffffffffffffffffffffffffffff16610b6d611398565b73ffffffffffffffffffffffffffffffffffffffff167f17307eab39ab6107e8899845ad3d59bd9653f200f220920489ca2b5937696c3183604051610bb291906130b8565b60405180910390a35050565b6000610bca6007611973565b90506000610bd782610703565b90506000610be483610da5565b90506000610bf184610f25565b90506000838383604051602001610c0a93929190612efb565b60405160208183030381529060405290506000600882604051602001610c31929190612f2c565b60405160208183030381529060405290506000610c7683610c5184611981565b604051602001610c62929190612f9f565b604051602081830303815290604052611981565b9050600081604051602001610c8b9190613006565b6040516020818303038152906040529050610cda6040518060400160405280600c81526020017f0a2d2d2d2d2d2d2d2d2d2d0a0000000000000000000000000000000000000000815250611229565b610ce381611229565b610d216040518060400160405280600b81526020017f2d2d2d2d2d2d2d2d2d2d0a000000000000000000000000000000000000000000815250611229565b610d2b3389611b3f565b610d358882611b5d565b610d3f6007611bd1565b610d626040518060600160405280602781526020016137e8602791398933611be7565b7fbb7bf1bfa17eb908d3b3364aa1cf8fce3dc4cc6f4d2ad0560604df048af9afe13389604051610d9392919061308f565b60405180910390a15050505050505050565b60606000610dd9610db584611793565b604051602001610dc59190612f7d565b604051602081830303815290604052611940565b9050600a8054905081610dec919061364d565b9050600a8181548110610e28577f4e487b7100000000000000000000000000000000000000000000000000000000600052603260045260246000fd5b906000526020600020018054610e3d906135d2565b80601f0160208091040260200160405190810160405280929190818152602001828054610e69906135d2565b8015610eb65780601f10610e8b57610100808354040283529160200191610eb6565b820191906000526020600020905b815481529060010190602001808311610e9957829003601f168201915b5050505050915050919050565b610ed4610ece611398565b83611459565b610f13576040517f08c379a0000000000000000000000000000000000000000000000000000000008152600401610f0a90613313565b60405180910390fd5b610f1f84848484611c86565b50505050565b60606000610f59610f3584611793565b604051602001610f459190612f5b565b604051602081830303815290604052611940565b9050600b8054905081610f6c919061364d565b9050600b8181548110610fa8577f4e487b7100000000000000000000000000000000000000000000000000000000600052603260045260246000fd5b906000526020600020018054610fbd906135d2565b80601f0160208091040260200160405190810160405280929190818152602001828054610fe9906135d2565b80156110365780601f1061100b57610100808354040283529160200191611036565b820191906000526020600020905b81548152906001019060200180831161101957829003601f168201915b5050505050915050919050565b606061104e8261132c565b61108d576040517f08c379a000000000000000000000000000000000000000000000000000000000815260040161108490613273565b60405180910390fd5b60006006600084815260200190815260200160002080546110ad906135d2565b80601f01602080910402602001604051908101604052809291908181526020018280546110d9906135d2565b80156111265780601f106110fb57610100808354040283529160200191611126565b820191906000526020600020905b81548152906001019060200180831161110957829003601f168201915b505050505090506000611137611ce2565b905060008151141561114d578192505050611190565b60008251111561118257808260405160200161116a929190612ed7565b60405160208183030381529060405292505050611190565b61118b84611cf9565b925050505b919050565b6000600560008473ffffffffffffffffffffffffffffffffffffffff1673ffffffffffffffffffffffffffffffffffffffff16815260200190815260200160002060008373ffffffffffffffffffffffffffffffffffffffff1673ffffffffffffffffffffffffffffffffffffffff16815260200190815260200160002060009054906101000a900460ff16905092915050565b6112bf8160405160240161123d91906130d3565b6040516020818303038152906040527f41304fac000000000000000000000000000000000000000000000000000000007bffffffffffffffffffffffffffffffffffffffffffffffffffffffff19166020820180517bffffffffffffffffffffffffffffffffffffffffffffffffffffffff8381831617835250505050611da0565b50565b60007f01ffc9a7000000000000000000000000000000000000000000000000000000007bffffffffffffffffffffffffffffffffffffffffffffffffffffffff1916827bffffffffffffffffffffffffffffffffffffffffffffffffffffffff1916149050919050565b60008073ffffffffffffffffffffffffffffffffffffffff166002600084815260200190815260200160002060009054906101000a900473ffffffffffffffffffffffffffffffffffffffff1673ffffffffffffffffffffffffffffffffffffffff1614159050919050565b600033905090565b816004600083815260200190815260200160002060006101000a81548173ffffffffffffffffffffffffffffffffffffffff021916908373ffffffffffffffffffffffffffffffffffffffff160217905550808273ffffffffffffffffffffffffffffffffffffffff1661141383610841565b73ffffffffffffffffffffffffffffffffffffffff167f8c5be1e5ebec7d5bd14f71427d1e84f3dd0314c0f7b2291e5b200ac8c7c3b92560405160405180910390a45050565b60006114648261132c565b6114a3576040517f08c379a000000000000000000000000000000000000000000000000000000000815260040161149a906131b3565b60405180910390fd5b60006114ae83610841565b90508073ffffffffffffffffffffffffffffffffffffffff168473ffffffffffffffffffffffffffffffffffffffff16148061151d57508373ffffffffffffffffffffffffffffffffffffffff1661150584610506565b73ffffffffffffffffffffffffffffffffffffffff16145b8061152e575061152d8185611195565b5b91505092915050565b8273ffffffffffffffffffffffffffffffffffffffff1661155782610841565b73ffffffffffffffffffffffffffffffffffffffff16146115ad576040517f08c379a00000000000000000000000000000000000000000000000000000000081526004016115a4906132b3565b60405180910390fd5b600073ffffffffffffffffffffffffffffffffffffffff168273ffffffffffffffffffffffffffffffffffffffff16141561161d576040517f08c379a000000000000000000000000000000000000000000000000000000000815260040161161490613173565b60405180910390fd5b611628838383611dc9565b6116336000826113a0565b6001600360008573ffffffffffffffffffffffffffffffffffffffff1673ffffffffffffffffffffffffffffffffffffffff168152602001908152602001600020600082825461168391906134e8565b925050819055506001600360008473ffffffffffffffffffffffffffffffffffffffff1673ffffffffffffffffffffffffffffffffffffffff16815260200190815260200160002060008282546116da9190613407565b92505081905550816002600083815260200190815260200160002060006101000a81548173ffffffffffffffffffffffffffffffffffffffff021916908373ffffffffffffffffffffffffffffffffffffffff160217905550808273ffffffffffffffffffffffffffffffffffffffff168473ffffffffffffffffffffffffffffffffffffffff167fddf252ad1be2c89b69c2b068fc378daa952ba7f163c4a11628f55a4df523b3ef60405160405180910390a4505050565b606060008214156117db576040518060400160405280600181526020017f3000000000000000000000000000000000000000000000000000000000000000815250905061193b565b600082905060005b6000821461180d5780806117f690613604565b915050600a82611806919061345d565b91506117e3565b60008167ffffffffffffffff81111561184f577f4e487b7100000000000000000000000000000000000000000000000000000000600052604160045260246000fd5b6040519080825280601f01601f1916602001820160405280156118815781602001600182028036833780820191505090505b5090505b600085146119345760018261189a91906134e8565b9150600a856118a9919061364d565b60306118b59190613407565b60f81b8183815181106118f1577f4e487b7100000000000000000000000000000000000000000000000000000000600052603260045260246000fd5b60200101907effffffffffffffffffffffffffffffffffffffffffffffffffffffffffffff1916908160001a905350600a8561192d919061345d565b9450611885565b8093505050505b919050565b6000816040516020016119539190612ec0565b6040516020818303038152906040528051906020012060001c9050919050565b600081600001549050919050565b606060008251905060008114156119aa5760405180602001604052806000815250915050611b3a565b600060036002836119bb9190613407565b6119c5919061345d565b60046119d1919061348e565b905060006020826119e29190613407565b67ffffffffffffffff811115611a21577f4e487b7100000000000000000000000000000000000000000000000000000000600052604160045260246000fd5b6040519080825280601f01601f191660200182016040528015611a535781602001600182028036833780820191505090505b50905060006040518060600160405280604081526020016137a8604091399050600181016020830160005b86811015611af75760038101905062ffffff818a015116603f8160121c168401518060081b905060ff603f83600c1c1686015116810190508060081b905060ff603f8360061c1686015116810190508060081b905060ff603f831686015116810190508060e01b90508084526004840193505050611a7e565b506003860660018114611b115760028114611b2157611b2c565b613d3d60f01b6002830352611b2c565b603d60f81b60018303525b508484525050819450505050505b919050565b611b59828260405180602001604052806000815250611dce565b5050565b611b668261132c565b611ba5576040517f08c379a0000000000000000000000000000000000000000000000000000000008152600401611b9c90613233565b60405180910390fd5b80600660008481526020019081526020016000209080519060200190611bcc9291906121a1565b505050565b6001816000016000828254019250508190555050565b611c81838383604051602401611bff939291906130f5565b6040516020818303038152906040527fe3849f79000000000000000000000000000000000000000000000000000000007bffffffffffffffffffffffffffffffffffffffffffffffffffffffff19166020820180517bffffffffffffffffffffffffffffffffffffffffffffffffffffffff8381831617835250505050611da0565b505050565b611c91848484611537565b611c9d84848484611e29565b611cdc576040517f08c379a0000000000000000000000000000000000000000000000000000000008152600401611cd390613133565b60405180910390fd5b50505050565b606060405180602001604052806000815250905090565b6060611d048261132c565b611d43576040517f08c379a0000000000000000000000000000000000000000000000000000000008152600401611d3a906132d3565b60405180910390fd5b6000611d4d611ce2565b90506000815111611d6d5760405180602001604052806000815250611d98565b80611d7784611793565b604051602001611d88929190612ed7565b6040516020818303038152906040525b915050919050565b60008151905060006a636f6e736f6c652e6c6f679050602083016000808483855afa5050505050565b505050565b611dd88383611fc0565b611de56000848484611e29565b611e24576040517f08c379a0000000000000000000000000000000000000000000000000000000008152600401611e1b90613133565b60405180910390fd5b505050565b6000611e4a8473ffffffffffffffffffffffffffffffffffffffff1661218e565b15611fb3578373ffffffffffffffffffffffffffffffffffffffff1663150b7a02611e73611398565b8786866040518563ffffffff1660e01b8152600401611e959493929190613043565b602060405180830381600087803b158015611eaf57600080fd5b505af1925050508015611ee057506040513d601f19601f82011682018060405250810190611edd91906124e5565b60015b611f63573d8060008114611f10576040519150601f19603f3d011682016040523d82523d6000602084013e611f15565b606091505b50600081511415611f5b576040517f08c379a0000000000000000000000000000000000000000000000000000000008152600401611f5290613133565b60405180910390fd5b805181602001fd5b63150b7a0260e01b7bffffffffffffffffffffffffffffffffffffffffffffffffffffffff1916817bffffffffffffffffffffffffffffffffffffffffffffffffffffffff191614915050611fb8565b600190505b949350505050565b600073ffffffffffffffffffffffffffffffffffffffff168273ffffffffffffffffffffffffffffffffffffffff161415612030576040517f08c379a000000000000000000000000000000000000000000000000000000000815260040161202790613253565b60405180910390fd5b6120398161132c565b15612079576040517f08c379a000000000000000000000000000000000000000000000000000000000815260040161207090613153565b60405180910390fd5b61208560008383611dc9565b6001600360008473ffffffffffffffffffffffffffffffffffffffff1673ffffffffffffffffffffffffffffffffffffffff16815260200190815260200160002060008282546120d59190613407565b92505081905550816002600083815260200190815260200160002060006101000a81548173ffffffffffffffffffffffffffffffffffffffff021916908373ffffffffffffffffffffffffffffffffffffffff160217905550808273ffffffffffffffffffffffffffffffffffffffff16600073ffffffffffffffffffffffffffffffffffffffff167fddf252ad1be2c89b69c2b068fc378daa952ba7f163c4a11628f55a4df523b3ef60405160405180910390a45050565b600080823b905060008111915050919050565b8280546121ad906135d2565b90600052602060002090601f0160209004810192826121cf5760008555612216565b82601f106121e857805160ff1916838001178555612216565b82800160010185558215612216579182015b828111156122155782518255916020019190600101906121fa565b5b5090506122239190612227565b5090565b5b80821115612240576000816000905550600101612228565b5090565b60006122576122528461337f565b61334e565b90508281526020810184848401111561226f57600080fd5b61227a848285613590565b509392505050565b6000813590506122918161374b565b92915050565b6000813590506122a681613762565b92915050565b6000813590506122bb81613779565b92915050565b6000815190506122d081613779565b92915050565b600082601f8301126122e757600080fd5b81356122f7848260208601612244565b91505092915050565b60008135905061230f81613790565b92915050565b60006020828403121561232757600080fd5b600061233584828501612282565b91505092915050565b6000806040838503121561235157600080fd5b600061235f85828601612282565b925050602061237085828601612282565b9150509250929050565b60008060006060848603121561238f57600080fd5b600061239d86828701612282565b93505060206123ae86828701612282565b92505060406123bf86828701612300565b9150509250925092565b600080600080608085870312156123df57600080fd5b60006123ed87828801612282565b94505060206123fe87828801612282565b935050604061240f87828801612300565b925050606085013567ffffffffffffffff81111561242c57600080fd5b612438878288016122d6565b91505092959194509250565b6000806040838503121561245757600080fd5b600061246585828601612282565b925050602061247685828601612297565b9150509250929050565b6000806040838503121561249357600080fd5b60006124a185828601612282565b92505060206124b285828601612300565b9150509250929050565b6000602082840312156124ce57600080fd5b60006124dc848285016122ac565b91505092915050565b6000602082840312156124f757600080fd5b6000612505848285016122c1565b91505092915050565b60006020828403121561252057600080fd5b600061252e84828501612300565b91505092915050565b6125408161351c565b82525050565b61254f8161352e565b82525050565b6000612560826133c4565b61256a81856133da565b935061257a81856020860161359f565b6125838161373a565b840191505092915050565b6000612599826133cf565b6125a381856133eb565b93506125b381856020860161359f565b6125bc8161373a565b840191505092915050565b60006125d2826133cf565b6125dc81856133fc565b93506125ec81856020860161359f565b80840191505092915050565b60008154612605816135d2565b61260f81866133fc565b9450600182166000811461262a576001811461263b5761266e565b60ff1983168652818601935061266e565b612644856133af565b60005b8381101561266657815481890152600182019150602081019050612647565b838801955050505b50505092915050565b60006126846032836133eb565b91507f4552433732313a207472616e7366657220746f206e6f6e20455243373231526560008301527f63656976657220696d706c656d656e74657200000000000000000000000000006020830152604082019050919050565b60006126ea601c836133eb565b91507f4552433732313a20746f6b656e20616c7265616479206d696e746564000000006000830152602082019050919050565b600061272a600a836133fc565b91507f54484952445f574f5244000000000000000000000000000000000000000000006000830152600a82019050919050565b600061276a6024836133eb565b91507f4552433732313a207472616e7366657220746f20746865207a65726f2061646460008301527f72657373000000000000000000000000000000000000000000000000000000006020830152604082019050919050565b60006127d06019836133eb565b91507f4552433732313a20617070726f766520746f2063616c6c6572000000000000006000830152602082019050919050565b6000612810600b836133fc565b91507f5345434f4e445f574f52440000000000000000000000000000000000000000006000830152600b82019050919050565b6000612850602c836133eb565b91507f4552433732313a206f70657261746f7220717565727920666f72206e6f6e657860008301527f697374656e7420746f6b656e00000000000000000000000000000000000000006020830152604082019050919050565b60006128b6600d836133fc565b91507f3c2f746578743e3c2f7376673e000000000000000000000000000000000000006000830152600d82019050919050565b60006128f66038836133eb565b91507f4552433732313a20617070726f76652063616c6c6572206973206e6f74206f7760008301527f6e6572206e6f7220617070726f76656420666f7220616c6c00000000000000006020830152604082019050919050565b600061295c602a836133eb565b91507f4552433732313a2062616c616e636520717565727920666f7220746865207a6560008301527f726f2061646472657373000000000000000000000000000000000000000000006020830152604082019050919050565b60006129c26029836133eb565b91507f4552433732313a206f776e657220717565727920666f72206e6f6e657869737460008301527f656e7420746f6b656e00000000000000000000000000000000000000000000006020830152604082019050919050565b6000612a28602e836133eb565b91507f45524337323155524953746f726167653a2055524920736574206f66206e6f6e60008301527f6578697374656e7420746f6b656e0000000000000000000000000000000000006020830152604082019050919050565b6000612a8e6002836133fc565b91507f227d0000000000000000000000000000000000000000000000000000000000006000830152600282019050919050565b6000612ace6020836133eb565b91507f4552433732313a206d696e7420746f20746865207a65726f20616464726573736000830152602082019050919050565b6000612b0e6031836133eb565b91507f45524337323155524953746f726167653a2055524920717565727920666f722060008301527f6e6f6e6578697374656e7420746f6b656e0000000000000000000000000000006020830152604082019050919050565b6000612b74602c836133eb565b91507f4552433732313a20617070726f76656420717565727920666f72206e6f6e657860008301527f697374656e7420746f6b656e00000000000000000000000000000000000000006020830152604082019050919050565b6000612bda6029836133eb565b91507f4552433732313a207472616e73666572206f6620746f6b656e2074686174206960008301527f73206e6f74206f776e00000000000000000000000000000000000000000000006020830152604082019050919050565b6000612c40602f836133eb565b91507f4552433732314d657461646174613a2055524920717565727920666f72206e6f60008301527f6e6578697374656e7420746f6b656e00000000000000000000000000000000006020830152604082019050919050565b6000612ca6600a836133fc565b91507f7b226e616d65223a2022000000000000000000000000000000000000000000006000830152600a82019050919050565b6000612ce66021836133eb565b91507f4552433732313a20617070726f76616c20746f2063757272656e74206f776e6560008301527f72000000000000000000000000000000000000000000000000000000000000006020830152604082019050919050565b6000612d4c600a836133fc565b91507f46495253545f574f5244000000000000000000000000000000000000000000006000830152600a82019050919050565b6000612d8c601d836133fc565b91507f646174613a6170706c69636174696f6e2f6a736f6e3b6261736536342c0000006000830152601d82019050919050565b6000612dcc6031836133eb565b91507f4552433732313a207472616e736665722063616c6c6572206973206e6f74206f60008301527f776e6572206e6f7220617070726f7665640000000000000000000000000000006020830152604082019050919050565b6000612e32605d836133fc565b91507f222c20226465736372697074696f6e223a20225468652073757065722072617260008301527f6520627265616b6661737420636f6c6c656374696f6e222c2022696d6167652260208301527f3a2022646174613a696d6167652f7376672b786d6c3b6261736536342c0000006040830152605d82019050919050565b612eba81613586565b82525050565b6000612ecc82846125c7565b915081905092915050565b6000612ee382856125c7565b9150612eef82846125c7565b91508190509392505050565b6000612f0782866125c7565b9150612f1382856125c7565b9150612f1f82846125c7565b9150819050949350505050565b6000612f3882856125f8565b9150612f4482846125c7565b9150612f4f826128a9565b91508190509392505050565b6000612f668261271d565b9150612f7282846125c7565b915081905092915050565b6000612f8882612803565b9150612f9482846125c7565b915081905092915050565b6000612faa82612c99565b9150612fb682856125c7565b9150612fc182612e25565b9150612fcd82846125c7565b9150612fd882612a81565b91508190509392505050565b6000612fef82612d3f565b9150612ffb82846125c7565b915081905092915050565b600061301182612d7f565b915061301d82846125c7565b915081905092915050565b600060208201905061303d6000830184612537565b92915050565b60006080820190506130586000830187612537565b6130656020830186612537565b6130726040830185612eb1565b81810360608301526130848184612555565b905095945050505050565b60006040820190506130a46000830185612537565b6130b16020830184612eb1565b9392505050565b60006020820190506130cd6000830184612546565b92915050565b600060208201905081810360008301526130ed818461258e565b905092915050565b6000606082019050818103600083015261310f818661258e565b905061311e6020830185612eb1565b61312b6040830184612537565b949350505050565b6000602082019050818103600083015261314c81612677565b9050919050565b6000602082019050818103600083015261316c816126dd565b9050919050565b6000602082019050818103600083015261318c8161275d565b9050919050565b600060208201905081810360008301526131ac816127c3565b9050919050565b600060208201905081810360008301526131cc81612843565b9050919050565b600060208201905081810360008301526131ec816128e9565b9050919050565b6000602082019050818103600083015261320c8161294f565b9050919050565b6000602082019050818103600083015261322c816129b5565b9050919050565b6000602082019050818103600083015261324c81612a1b565b9050919050565b6000602082019050818103600083015261326c81612ac1565b9050919050565b6000602082019050818103600083015261328c81612b01565b9050919050565b600060208201905081810360008301526132ac81612b67565b9050919050565b600060208201905081810360008301526132cc81612bcd565b9050919050565b600060208201905081810360008301526132ec81612c33565b9050919050565b6000602082019050818103600083015261330c81612cd9565b9050919050565b6000602082019050818103600083015261332c81612dbf565b9050919050565b60006020820190506133486000830184612eb1565b92915050565b6000604051905081810181811067ffffffffffffffff821117156133755761337461370b565b5b8060405250919050565b600067ffffffffffffffff82111561339a5761339961370b565b5b601f19601f8301169050602081019050919050565b60008190508160005260206000209050919050565b600081519050919050565b600081519050919050565b600082825260208201905092915050565b600082825260208201905092915050565b600081905092915050565b600061341282613586565b915061341d83613586565b9250827fffffffffffffffffffffffffffffffffffffffffffffffffffffffffffffffff038211156134525761345161367e565b5b828201905092915050565b600061346882613586565b915061347383613586565b925082613483576134826136ad565b5b828204905092915050565b600061349982613586565b91506134a483613586565b9250817fffffffffffffffffffffffffffffffffffffffffffffffffffffffffffffffff04831182151516156134dd576134dc61367e565b5b828202905092915050565b60006134f382613586565b91506134fe83613586565b9250828210156135115761351061367e565b5b828203905092915050565b600061352782613566565b9050919050565b60008115159050919050565b60007fffffffff0000000000000000000000000000000000000000000000000000000082169050919050565b600073ffffffffffffffffffffffffffffffffffffffff82169050919050565b6000819050919050565b82818337600083830152505050565b60005b838110156135bd5780820151818401526020810190506135a2565b838111156135cc576000848401525b50505050565b600060028204905060018216806135ea57607f821691505b602082108114156135fe576135fd6136dc565b5b50919050565b600061360f82613586565b91507fffffffffffffffffffffffffffffffffffffffffffffffffffffffffffffffff8214156136425761364161367e565b5b600182019050919050565b600061365882613586565b915061366383613586565b925082613673576136726136ad565b5b828206905092915050565b7f4e487b7100000000000000000000000000000000000000000000000000000000600052601160045260246000fd5b7f4e487b7100000000000000000000000000000000000000000000000000000000600052601260045260246000fd5b7f4e487b7100000000000000000000000000000000000000000000000000000000600052602260045260246000fd5b7f4e487b7100000000000000000000000000000000000000000000000000000000600052604160045260246000fd5b6000601f19601f8301169050919050565b6137548161351c565b811461375f57600080fd5b50565b61376b8161352e565b811461377657600080fd5b50565b6137828161353a565b811461378d57600080fd5b50565b61379981613586565b81146137a457600080fd5b5056fe4142434445464748494a4b4c4d4e4f505152535455565758595a6162636465666768696a6b6c6d6e6f707172737475767778797a303132333435363738392b2f416e204e4654207769746820494420257320686173206265656e206d696e74656420746f202573a2646970667358221220d45f00a370a2fe3ebbd09f139347d938dd576243cc799560612483968b10a8a264736f6c6343000800003354686973206973206d79206669727374204e465420636f6e7472616374212057686f61213c73766720786d6c6e733d27687474703a2f2f7777772e77332e6f72672f323030302f73766727207072657365727665417370656374526174696f3d27784d696e594d696e206d656574272076696577426f783d273020302033353020333530273e3c7374796c653e2e62617365207b2066696c6c3a2077686974653b20666f6e742d66616d696c793a2073657269663b20666f6e742d73697a653a20323470783b207d3c2f7374796c653e3c726563742077696474683d273130302527206865696768743d2731303025272066696c6c3d27626c61636b27202f3e3c7465787420783d273530252720793d273530252720636c6173733d27626173652720646f6d696e616e742d626173656c696e653d276d6964646c652720746578742d616e63686f723d276d6964646c65273e",
  "linkReferences": {},
  "deployedLinkReferences": {}
}