{
  "_format": "hh-sol-artifact-1",
  "contractName": "BreakfastCollectionNFT",
  "sourceName": "contracts/BreakfastCollectionNFT.sol",
  "abi": [
    {
      "inputs": [],
      "stateMutability": "nonpayable",
      "type": "constructor"
    },
    {
      "anonymous": false,
      "inputs": [
        {
          "indexed": true,
          "internalType": "address",
          "name": "owner",
          "type": "address"
        },
        {
          "indexed": true,
          "internalType": "address",
          "name": "approved",
          "type": "address"
        },
        {
          "indexed": true,
          "internalType": "uint256",
          "name": "tokenId",
          "type": "uint256"
        }
      ],
      "name": "Approval",
      "type": "event"
    },
    {
      "anonymous": false,
      "inputs": [
        {
          "indexed": true,
          "internalType": "address",
          "name": "owner",
          "type": "address"
        },
        {
          "indexed": true,
          "internalType": "address",
          "name": "operator",
          "type": "address"
        },
        {
          "indexed": false,
          "internalType": "bool",
          "name": "approved",
          "type": "bool"
        }
      ],
      "name": "ApprovalForAll",
      "type": "event"
    },
    {
      "anonymous": false,
      "inputs": [
        {
          "indexed": true,
          "internalType": "address",
          "name": "from",
          "type": "address"
        },
        {
          "indexed": true,
          "internalType": "address",
          "name": "to",
          "type": "address"
        },
        {
          "indexed": true,
          "internalType": "uint256",
          "name": "tokenId",
          "type": "uint256"
        }
      ],
      "name": "Transfer",
      "type": "event"
    },
    {
      "inputs": [
        {
          "internalType": "address",
          "name": "to",
          "type": "address"
        },
        {
          "internalType": "uint256",
          "name": "tokenId",
          "type": "uint256"
        }
      ],
      "name": "approve",
      "outputs": [],
      "stateMutability": "nonpayable",
      "type": "function"
    },
    {
      "inputs": [
        {
          "internalType": "address",
          "name": "owner",
          "type": "address"
        }
      ],
      "name": "balanceOf",
      "outputs": [
        {
          "internalType": "uint256",
          "name": "",
          "type": "uint256"
        }
      ],
      "stateMutability": "view",
      "type": "function"
    },
    {
      "inputs": [
        {
          "internalType": "uint256",
          "name": "tokenId",
          "type": "uint256"
        }
      ],
      "name": "getApproved",
      "outputs": [
        {
          "internalType": "address",
          "name": "",
          "type": "address"
        }
      ],
      "stateMutability": "view",
      "type": "function"
    },
    {
      "inputs": [
        {
          "internalType": "address",
          "name": "owner",
          "type": "address"
        },
        {
          "internalType": "address",
          "name": "operator",
          "type": "address"
        }
      ],
      "name": "isApprovedForAll",
      "outputs": [
        {
          "internalType": "bool",
          "name": "",
          "type": "bool"
        }
      ],
      "stateMutability": "view",
      "type": "function"
    },
    {
      "inputs": [],
      "name": "makeNFT",
      "outputs": [],
      "stateMutability": "nonpayable",
      "type": "function"
    },
    {
      "inputs": [],
      "name": "name",
      "outputs": [
        {
          "internalType": "string",
          "name": "",
          "type": "string"
        }
      ],
      "stateMutability": "view",
      "type": "function"
    },
    {
      "inputs": [
        {
          "internalType": "uint256",
          "name": "tokenId",
          "type": "uint256"
        }
      ],
      "name": "ownerOf",
      "outputs": [
        {
          "internalType": "address",
          "name": "",
          "type": "address"
        }
      ],
      "stateMutability": "view",
      "type": "function"
    },
    {
      "inputs": [
        {
          "internalType": "uint256",
          "name": "tokenId",
          "type": "uint256"
        }
      ],
      "name": "pickRandomFirstWord",
      "outputs": [
        {
          "internalType": "string",
          "name": "",
          "type": "string"
        }
      ],
      "stateMutability": "view",
      "type": "function"
    },
    {
      "inputs": [
        {
          "internalType": "uint256",
          "name": "tokenId",
          "type": "uint256"
        }
      ],
      "name": "pickRandomSecondWord",
      "outputs": [
        {
          "internalType": "string",
          "name": "",
          "type": "string"
        }
      ],
      "stateMutability": "view",
      "type": "function"
    },
    {
      "inputs": [
        {
          "internalType": "uint256",
          "name": "tokenId",
          "type": "uint256"
        }
      ],
      "name": "pickRandomThirdWord",
      "outputs": [
        {
          "internalType": "string",
          "name": "",
          "type": "string"
        }
      ],
      "stateMutability": "view",
      "type": "function"
    },
    {
      "inputs": [
        {
          "internalType": "address",
          "name": "from",
          "type": "address"
        },
        {
          "internalType": "address",
          "name": "to",
          "type": "address"
        },
        {
          "internalType": "uint256",
          "name": "tokenId",
          "type": "uint256"
        }
      ],
      "name": "safeTransferFrom",
      "outputs": [],
      "stateMutability": "nonpayable",
      "type": "function"
    },
    {
      "inputs": [
        {
          "internalType": "address",
          "name": "from",
          "type": "address"
        },
        {
          "internalType": "address",
          "name": "to",
          "type": "address"
        },
        {
          "internalType": "uint256",
          "name": "tokenId",
          "type": "uint256"
        },
        {
          "internalType": "bytes",
          "name": "_data",
          "type": "bytes"
        }
      ],
      "name": "safeTransferFrom",
      "outputs": [],
      "stateMutability": "nonpayable",
      "type": "function"
    },
    {
      "inputs": [
        {
          "internalType": "address",
          "name": "operator",
          "type": "address"
        },
        {
          "internalType": "bool",
          "name": "approved",
          "type": "bool"
        }
      ],
      "name": "setApprovalForAll",
      "outputs": [],
      "stateMutability": "nonpayable",
      "type": "function"
    },
    {
      "inputs": [
        {
          "internalType": "bytes4",
          "name": "interfaceId",
          "type": "bytes4"
        }
      ],
      "name": "supportsInterface",
      "outputs": [
        {
          "internalType": "bool",
          "name": "",
          "type": "bool"
        }
      ],
      "stateMutability": "view",
      "type": "function"
    },
    {
      "inputs": [],
      "name": "symbol",
      "outputs": [
        {
          "internalType": "string",
          "name": "",
          "type": "string"
        }
      ],
      "stateMutability": "view",
      "type": "function"
    },
    {
      "inputs": [
        {
          "internalType": "uint256",
          "name": "tokenId",
          "type": "uint256"
        }
      ],
      "name": "tokenURI",
      "outputs": [
        {
          "internalType": "string",
          "name": "",
          "type": "string"
        }
      ],
      "stateMutability": "view",
      "type": "function"
    },
    {
      "inputs": [
        {
          "internalType": "address",
          "name": "from",
          "type": "address"
        },
        {
          "internalType": "address",
          "name": "to",
          "type": "address"
        },
        {
          "internalType": "uint256",
          "name": "tokenId",
          "type": "uint256"
        }
      ],
      "name": "transferFrom",
      "outputs": [],
      "stateMutability": "nonpayable",
      "type": "function"
    }
  ],
  "bytecode": "0x608060405260405180610160016040528061012f81526020016200479261012f9139600890805190602001906200003892919062000c63565b50604051806101e001604052806040518060400160405280600681526020017f45786f746963000000000000000000000000000000000000000000000000000081525081526020016040518060400160405280600981526020017f537061726b6c696e67000000000000000000000000000000000000000000000081525081526020016040518060400160405280600481526020017f526172650000000000000000000000000000000000000000000000000000000081525081526020016040518060400160405280600981526020017f496e76697369626c65000000000000000000000000000000000000000000000081525081526020016040518060400160405280600481526020017f57696c640000000000000000000000000000000000000000000000000000000081525081526020016040518060400160405280600b81526020017f50726574656e74696f757300000000000000000000000000000000000000000081525081526020016040518060400160405280600981526020017f457870656e73697665000000000000000000000000000000000000000000000081525081526020016040518060400160405280600481526020017f457069630000000000000000000000000000000000000000000000000000000081525081526020016040518060400160405280600581526020017f47726f737300000000000000000000000000000000000000000000000000000081525081526020016040518060400160405280600681526020017f547269707079000000000000000000000000000000000000000000000000000081525081526020016040518060400160405280600681526020017f466c75666679000000000000000000000000000000000000000000000000000081525081526020016040518060400160405280600581526020017f4c6173657200000000000000000000000000000000000000000000000000000081525081526020016040518060400160405280600c81526020017f436f6d7075746572697a6564000000000000000000000000000000000000000081525081526020016040518060400160405280600581526020017f4d616e696300000000000000000000000000000000000000000000000000000081525081526020016040518060400160405280600681526020017f546f756368790000000000000000000000000000000000000000000000000000815250815250600990600f620003ca92919062000cf4565b50604051806101c001604052806040518060400160405280600581526020017f5374616c6500000000000000000000000000000000000000000000000000000081525081526020016040518060400160405280600581526020017f536c696d7900000000000000000000000000000000000000000000000000000081525081526020016040518060400160405280600681526020017f537972757079000000000000000000000000000000000000000000000000000081525081526020016040518060400160405280600881526020017f427574746572656400000000000000000000000000000000000000000000000081525081526020016040518060400160405280600a81526020017f48616c662d656174656e0000000000000000000000000000000000000000000081525081526020016040518060400160405280600581526020017f4275726e7400000000000000000000000000000000000000000000000000000081525081526020016040518060400160405280600a81526020017f43686f636f6c617465790000000000000000000000000000000000000000000081525081526020016040518060400160405280600781526020017f447275676765640000000000000000000000000000000000000000000000000081525081526020016040518060400160405280600581526020017f476c61737300000000000000000000000000000000000000000000000000000081525081526020016040518060400160405280600781526020017f4469616d6f6e640000000000000000000000000000000000000000000000000081525081526020016040518060400160405280600681526020017f507574726964000000000000000000000000000000000000000000000000000081525081526020016040518060400160405280600881526020017f456d62616c6d656400000000000000000000000000000000000000000000000081525081526020016040518060400160405280600a81526020017f537472617762657272790000000000000000000000000000000000000000000081525081526020016040518060400160405280600581526020017f53746f6e65000000000000000000000000000000000000000000000000000000815250815250600a90600e6200072192919062000d5b565b50604051806101e001604052806040518060400160405280600781526020017f50616e63616b650000000000000000000000000000000000000000000000000081525081526020016040518060400160405280600681526020017f576166666c65000000000000000000000000000000000000000000000000000081525081526020016040518060400160405280600581526020017f53636f6e6500000000000000000000000000000000000000000000000000000081525081526020016040518060400160405280600581526020017f437265706500000000000000000000000000000000000000000000000000000081525081526020016040518060400160405280600881526020017f4f6d656c6574746500000000000000000000000000000000000000000000000081525081526020016040518060400160405280600681526020017f43657265616c000000000000000000000000000000000000000000000000000081525081526020016040518060400160405280600781526020017f4f61746d65616c0000000000000000000000000000000000000000000000000081525081526020016040518060400160405280600781526020017f41766f6361646f0000000000000000000000000000000000000000000000000081525081526020016040518060400160405280600581526020017f546f61737400000000000000000000000000000000000000000000000000000081525081526020016040518060400160405280600a81526020017f43726f697373616e74730000000000000000000000000000000000000000000081525081526020016040518060400160405280600581526020017f477269747300000000000000000000000000000000000000000000000000000081525081526020016040518060400160405280600681526020017f4d756666696e000000000000000000000000000000000000000000000000000081525081526020016040518060400160405280600781526020017f426973637569740000000000000000000000000000000000000000000000000081525081526020016040518060400160405280600581526020017f426167656c00000000000000000000000000000000000000000000000000000081525081526020016040518060400160405280600581526020017f4261636f6e000000000000000000000000000000000000000000000000000000815250815250600b90600f62000ab392919062000cf4565b5034801562000ac157600080fd5b506040518060400160405280601881526020017f54686520427265616b6661737420436f6c6c656374696f6e00000000000000008152506040518060400160405280600781526020017f4177207969737300000000000000000000000000000000000000000000000000815250816000908051906020019062000b4692919062000c63565b50806001908051906020019062000b5f92919062000c63565b50505062000b916040518060600160405280602481526020016200476e6024913962000b9760201b620011f01760201c565b62000f7c565b62000c378160405160240162000bae919062000e90565b6040516020818303038152906040527f41304fac000000000000000000000000000000000000000000000000000000007bffffffffffffffffffffffffffffffffffffffffffffffffffffffff19166020820180517bffffffffffffffffffffffffffffffffffffffffffffffffffffffff838183161783525050505062000c3a60201b60201c565b50565b60008151905060006a636f6e736f6c652e6c6f679050602083016000808483855afa5050505050565b82805462000c719062000f06565b90600052602060002090601f01602090048101928262000c95576000855562000ce1565b82601f1062000cb057805160ff191683800117855562000ce1565b8280016001018555821562000ce1579182015b8281111562000ce057825182559160200191906001019062000cc3565b5b50905062000cf0919062000dc2565b5090565b82805482825590600052602060002090810192821562000d48579160200282015b8281111562000d4757825182908051906020019062000d3692919062000c63565b509160200191906001019062000d15565b5b50905062000d57919062000de1565b5090565b82805482825590600052602060002090810192821562000daf579160200282015b8281111562000dae57825182908051906020019062000d9d92919062000c63565b509160200191906001019062000d7c565b5b50905062000dbe919062000de1565b5090565b5b8082111562000ddd57600081600090555060010162000dc3565b5090565b5b8082111562000e05576000818162000dfb919062000e09565b5060010162000de2565b5090565b50805462000e179062000f06565b6000825580601f1062000e2b575062000e4c565b601f01602090049060005260206000209081019062000e4b919062000dc2565b5b50565b600062000e5c8262000eb4565b62000e68818562000ebf565b935062000e7a81856020860162000ed0565b62000e858162000f6b565b840191505092915050565b6000602082019050818103600083015262000eac818462000e4f565b905092915050565b600081519050919050565b600082825260208201905092915050565b60005b8381101562000ef057808201518184015260208101905062000ed3565b8381111562000f00576000848401525b50505050565b6000600282049050600182168062000f1f57607f821691505b6020821081141562000f365762000f3562000f3c565b5b50919050565b7f4e487b7100000000000000000000000000000000000000000000000000000000600052602260045260246000fd5b6000601f19601f8301169050919050565b6137e28062000f8c6000396000f3fe608060405234801561001057600080fd5b506004361061010b5760003560e01c806370a08231116100a2578063b187301f11610071578063b187301f146102b6578063b88d4fde146102e6578063c575757a14610302578063c87b56dd14610332578063e985e9c5146103625761010b565b806370a082311461024257806395d89b4114610272578063a22cb46514610290578063b036b4bd146102ac5761010b565b806323b872dd116100de57806323b872dd146101aa5780632de38d68146101c657806342842e0e146101f65780636352211e146102125761010b565b806301ffc9a71461011057806306fdde0314610140578063081812fc1461015e578063095ea7b31461018e575b600080fd5b61012a60048036038101906101259190612483565b610392565b6040516101379190613056565b60405180910390f35b610148610474565b6040516101559190613071565b60405180910390f35b610178600480360381019061017391906124d5565b610506565b6040516101859190612fef565b60405180910390f35b6101a860048036038101906101a39190612447565b61058b565b005b6101c460048036038101906101bf9190612341565b6106a3565b005b6101e060048036038101906101db91906124d5565b610703565b6040516101ed9190613071565b60405180910390f35b610210600480360381019061020b9190612341565b610821565b005b61022c600480360381019061022791906124d5565b610841565b6040516102399190612fef565b60405180910390f35b61025c600480360381019061025791906122dc565b6108f3565b60405161026991906132d1565b60405180910390f35b61027a6109ab565b6040516102879190613071565b60405180910390f35b6102aa60048036038101906102a5919061240b565b610a3d565b005b6102b4610bbe565b005b6102d060048036038101906102cb91906124d5565b610d6c565b6040516102dd9190613071565b60405180910390f35b61030060048036038101906102fb9190612390565b610e8a565b005b61031c600480360381019061031791906124d5565b610eec565b6040516103299190613071565b60405180910390f35b61034c600480360381019061034791906124d5565b61100a565b6040516103599190613071565b60405180910390f35b61037c60048036038101906103779190612305565b61115c565b6040516103899190613056565b60405180910390f35b60007f80ac58cd000000000000000000000000000000000000000000000000000000007bffffffffffffffffffffffffffffffffffffffffffffffffffffffff1916827bffffffffffffffffffffffffffffffffffffffffffffffffffffffff1916148061045d57507f5b5e139f000000000000000000000000000000000000000000000000000000007bffffffffffffffffffffffffffffffffffffffffffffffffffffffff1916827bffffffffffffffffffffffffffffffffffffffffffffffffffffffff1916145b8061046d575061046c82611289565b5b9050919050565b60606000805461048390613570565b80601f01602080910402602001604051908101604052809291908181526020018280546104af90613570565b80156104fc5780601f106104d1576101008083540402835291602001916104fc565b820191906000526020600020905b8154815290600101906020018083116104df57829003601f168201915b5050505050905090565b6000610511826112f3565b610550576040517f08c379a000000000000000000000000000000000000000000000000000000000815260040161054790613231565b60405180910390fd5b6004600083815260200190815260200160002060009054906101000a900473ffffffffffffffffffffffffffffffffffffffff169050919050565b600061059682610841565b90508073ffffffffffffffffffffffffffffffffffffffff168373ffffffffffffffffffffffffffffffffffffffff161415610607576040517f08c379a00000000000000000000000000000000000000000000000000000000081526004016105fe90613291565b60405180910390fd5b8073ffffffffffffffffffffffffffffffffffffffff1661062661135f565b73ffffffffffffffffffffffffffffffffffffffff16148061065557506106548161064f61135f565b61115c565b5b610694576040517f08c379a000000000000000000000000000000000000000000000000000000000815260040161068b90613171565b60405180910390fd5b61069e8383611367565b505050565b6106b46106ae61135f565b82611420565b6106f3576040517f08c379a00000000000000000000000000000000000000000000000000000000081526004016106ea906132b1565b60405180910390fd5b6106fe8383836114fe565b505050565b606060006107376107138461175a565b6040516020016107239190612fab565b604051602081830303815290604052611907565b90506009805490508161074a91906135eb565b905060098181548110610786577f4e487b7100000000000000000000000000000000000000000000000000000000600052603260045260246000fd5b90600052602060002001805461079b90613570565b80601f01602080910402602001604051908101604052809291908181526020018280546107c790613570565b80156108145780601f106107e957610100808354040283529160200191610814565b820191906000526020600020905b8154815290600101906020018083116107f757829003601f168201915b5050505050915050919050565b61083c83838360405180602001604052806000815250610e8a565b505050565b6000806002600084815260200190815260200160002060009054906101000a900473ffffffffffffffffffffffffffffffffffffffff169050600073ffffffffffffffffffffffffffffffffffffffff168173ffffffffffffffffffffffffffffffffffffffff1614156108ea576040517f08c379a00000000000000000000000000000000000000000000000000000000081526004016108e1906131b1565b60405180910390fd5b80915050919050565b60008073ffffffffffffffffffffffffffffffffffffffff168273ffffffffffffffffffffffffffffffffffffffff161415610964576040517f08c379a000000000000000000000000000000000000000000000000000000000815260040161095b90613191565b60405180910390fd5b600360008373ffffffffffffffffffffffffffffffffffffffff1673ffffffffffffffffffffffffffffffffffffffff168152602001908152602001600020549050919050565b6060600180546109ba90613570565b80601f01602080910402602001604051908101604052809291908181526020018280546109e690613570565b8015610a335780601f10610a0857610100808354040283529160200191610a33565b820191906000526020600020905b815481529060010190602001808311610a1657829003601f168201915b5050505050905090565b610a4561135f565b73ffffffffffffffffffffffffffffffffffffffff168273ffffffffffffffffffffffffffffffffffffffff161415610ab3576040517f08c379a0000000000000000000000000000000000000000000000000000000008152600401610aaa90613131565b60405180910390fd5b8060056000610ac061135f565b73ffffffffffffffffffffffffffffffffffffffff1673ffffffffffffffffffffffffffffffffffffffff16815260200190815260200160002060008473ffffffffffffffffffffffffffffffffffffffff1673ffffffffffffffffffffffffffffffffffffffff16815260200190815260200160002060006101000a81548160ff0219169083151502179055508173ffffffffffffffffffffffffffffffffffffffff16610b6d61135f565b73ffffffffffffffffffffffffffffffffffffffff167f17307eab39ab6107e8899845ad3d59bd9653f200f220920489ca2b5937696c3183604051610bb29190613056565b60405180910390a35050565b6000610bca600761193a565b90506000610bd782610703565b90506000610be483610d6c565b90506000610bf184610eec565b90506000838383604051602001610c0a93929190612ec2565b60405160208183030381529060405290506000600882604051602001610c31929190612ef3565b60405160208183030381529060405290506000610c7683610c5184611948565b604051602001610c62929190612f66565b604051602081830303815290604052611948565b9050600081604051602001610c8b9190612fcd565b6040516020818303038152906040529050610cda6040518060400160405280600c81526020017f0a2d2d2d2d2d2d2d2d2d2d0a00000000000000000000000000000000000000008152506111f0565b610ce3816111f0565b610d216040518060400160405280600b81526020017f2d2d2d2d2d2d2d2d2d2d0a0000000000000000000000000000000000000000008152506111f0565b610d2b3389611b06565b610d358882611b24565b610d3f6007611b98565b610d62604051806060016040528060278152602001613786602791398933611bae565b5050505050505050565b60606000610da0610d7c8461175a565b604051602001610d8c9190612f44565b604051602081830303815290604052611907565b9050600a8054905081610db391906135eb565b9050600a8181548110610def577f4e487b7100000000000000000000000000000000000000000000000000000000600052603260045260246000fd5b906000526020600020018054610e0490613570565b80601f0160208091040260200160405190810160405280929190818152602001828054610e3090613570565b8015610e7d5780601f10610e5257610100808354040283529160200191610e7d565b820191906000526020600020905b815481529060010190602001808311610e6057829003601f168201915b5050505050915050919050565b610e9b610e9561135f565b83611420565b610eda576040517f08c379a0000000000000000000000000000000000000000000000000000000008152600401610ed1906132b1565b60405180910390fd5b610ee684848484611c4d565b50505050565b60606000610f20610efc8461175a565b604051602001610f0c9190612f22565b604051602081830303815290604052611907565b9050600b8054905081610f3391906135eb565b9050600b8181548110610f6f577f4e487b7100000000000000000000000000000000000000000000000000000000600052603260045260246000fd5b906000526020600020018054610f8490613570565b80601f0160208091040260200160405190810160405280929190818152602001828054610fb090613570565b8015610ffd5780601f10610fd257610100808354040283529160200191610ffd565b820191906000526020600020905b815481529060010190602001808311610fe057829003601f168201915b5050505050915050919050565b6060611015826112f3565b611054576040517f08c379a000000000000000000000000000000000000000000000000000000000815260040161104b90613211565b60405180910390fd5b600060066000848152602001908152602001600020805461107490613570565b80601f01602080910402602001604051908101604052809291908181526020018280546110a090613570565b80156110ed5780601f106110c2576101008083540402835291602001916110ed565b820191906000526020600020905b8154815290600101906020018083116110d057829003601f168201915b5050505050905060006110fe611ca9565b9050600081511415611114578192505050611157565b600082511115611149578082604051602001611131929190612e9e565b60405160208183030381529060405292505050611157565b61115284611cc0565b925050505b919050565b6000600560008473ffffffffffffffffffffffffffffffffffffffff1673ffffffffffffffffffffffffffffffffffffffff16815260200190815260200160002060008373ffffffffffffffffffffffffffffffffffffffff1673ffffffffffffffffffffffffffffffffffffffff16815260200190815260200160002060009054906101000a900460ff16905092915050565b611286816040516024016112049190613071565b6040516020818303038152906040527f41304fac000000000000000000000000000000000000000000000000000000007bffffffffffffffffffffffffffffffffffffffffffffffffffffffff19166020820180517bffffffffffffffffffffffffffffffffffffffffffffffffffffffff8381831617835250505050611d67565b50565b60007f01ffc9a7000000000000000000000000000000000000000000000000000000007bffffffffffffffffffffffffffffffffffffffffffffffffffffffff1916827bffffffffffffffffffffffffffffffffffffffffffffffffffffffff1916149050919050565b60008073ffffffffffffffffffffffffffffffffffffffff166002600084815260200190815260200160002060009054906101000a900473ffffffffffffffffffffffffffffffffffffffff1673ffffffffffffffffffffffffffffffffffffffff1614159050919050565b600033905090565b816004600083815260200190815260200160002060006101000a81548173ffffffffffffffffffffffffffffffffffffffff021916908373ffffffffffffffffffffffffffffffffffffffff160217905550808273ffffffffffffffffffffffffffffffffffffffff166113da83610841565b73ffffffffffffffffffffffffffffffffffffffff167f8c5be1e5ebec7d5bd14f71427d1e84f3dd0314c0f7b2291e5b200ac8c7c3b92560405160405180910390a45050565b600061142b826112f3565b61146a576040517f08c379a000000000000000000000000000000000000000000000000000000000815260040161146190613151565b60405180910390fd5b600061147583610841565b90508073ffffffffffffffffffffffffffffffffffffffff168473ffffffffffffffffffffffffffffffffffffffff1614806114e457508373ffffffffffffffffffffffffffffffffffffffff166114cc84610506565b73ffffffffffffffffffffffffffffffffffffffff16145b806114f557506114f4818561115c565b5b91505092915050565b8273ffffffffffffffffffffffffffffffffffffffff1661151e82610841565b73ffffffffffffffffffffffffffffffffffffffff1614611574576040517f08c379a000000000000000000000000000000000000000000000000000000000815260040161156b90613251565b60405180910390fd5b600073ffffffffffffffffffffffffffffffffffffffff168273ffffffffffffffffffffffffffffffffffffffff1614156115e4576040517f08c379a00000000000000000000000000000000000000000000000000000000081526004016115db90613111565b60405180910390fd5b6115ef838383611d90565b6115fa600082611367565b6001600360008573ffffffffffffffffffffffffffffffffffffffff1673ffffffffffffffffffffffffffffffffffffffff168152602001908152602001600020600082825461164a9190613486565b925050819055506001600360008473ffffffffffffffffffffffffffffffffffffffff1673ffffffffffffffffffffffffffffffffffffffff16815260200190815260200160002060008282546116a191906133a5565b92505081905550816002600083815260200190815260200160002060006101000a81548173ffffffffffffffffffffffffffffffffffffffff021916908373ffffffffffffffffffffffffffffffffffffffff160217905550808273ffffffffffffffffffffffffffffffffffffffff168473ffffffffffffffffffffffffffffffffffffffff167fddf252ad1be2c89b69c2b068fc378daa952ba7f163c4a11628f55a4df523b3ef60405160405180910390a4505050565b606060008214156117a2576040518060400160405280600181526020017f30000000000000000000000000000000000000000000000000000000000000008152509050611902565b600082905060005b600082146117d45780806117bd906135a2565b915050600a826117cd91906133fb565b91506117aa565b60008167ffffffffffffffff811115611816577f4e487b7100000000000000000000000000000000000000000000000000000000600052604160045260246000fd5b6040519080825280601f01601f1916602001820160405280156118485781602001600182028036833780820191505090505b5090505b600085146118fb576001826118619190613486565b9150600a8561187091906135eb565b603061187c91906133a5565b60f81b8183815181106118b8577f4e487b7100000000000000000000000000000000000000000000000000000000600052603260045260246000fd5b60200101907effffffffffffffffffffffffffffffffffffffffffffffffffffffffffffff1916908160001a905350600a856118f491906133fb565b945061184c565b8093505050505b919050565b60008160405160200161191a9190612e87565b6040516020818303038152906040528051906020012060001c9050919050565b600081600001549050919050565b606060008251905060008114156119715760405180602001604052806000815250915050611b01565b6000600360028361198291906133a5565b61198c91906133fb565b6004611998919061342c565b905060006020826119a991906133a5565b67ffffffffffffffff8111156119e8577f4e487b7100000000000000000000000000000000000000000000000000000000600052604160045260246000fd5b6040519080825280601f01601f191660200182016040528015611a1a5781602001600182028036833780820191505090505b5090506000604051806060016040528060408152602001613746604091399050600181016020830160005b86811015611abe5760038101905062ffffff818a015116603f8160121c168401518060081b905060ff603f83600c1c1686015116810190508060081b905060ff603f8360061c1686015116810190508060081b905060ff603f831686015116810190508060e01b90508084526004840193505050611a45565b506003860660018114611ad85760028114611ae857611af3565b613d3d60f01b6002830352611af3565b603d60f81b60018303525b508484525050819450505050505b919050565b611b20828260405180602001604052806000815250611d95565b5050565b611b2d826112f3565b611b6c576040517f08c379a0000000000000000000000000000000000000000000000000000000008152600401611b63906131d1565b60405180910390fd5b80600660008481526020019081526020016000209080519060200190611b93929190612168565b505050565b6001816000016000828254019250508190555050565b611c48838383604051602401611bc693929190613093565b6040516020818303038152906040527fe3849f79000000000000000000000000000000000000000000000000000000007bffffffffffffffffffffffffffffffffffffffffffffffffffffffff19166020820180517bffffffffffffffffffffffffffffffffffffffffffffffffffffffff8381831617835250505050611d67565b505050565b611c588484846114fe565b611c6484848484611df0565b611ca3576040517f08c379a0000000000000000000000000000000000000000000000000000000008152600401611c9a906130d1565b60405180910390fd5b50505050565b606060405180602001604052806000815250905090565b6060611ccb826112f3565b611d0a576040517f08c379a0000000000000000000000000000000000000000000000000000000008152600401611d0190613271565b60405180910390fd5b6000611d14611ca9565b90506000815111611d345760405180602001604052806000815250611d5f565b80611d3e8461175a565b604051602001611d4f929190612e9e565b6040516020818303038152906040525b915050919050565b60008151905060006a636f6e736f6c652e6c6f679050602083016000808483855afa5050505050565b505050565b611d9f8383611f87565b611dac6000848484611df0565b611deb576040517f08c379a0000000000000000000000000000000000000000000000000000000008152600401611de2906130d1565b60405180910390fd5b505050565b6000611e118473ffffffffffffffffffffffffffffffffffffffff16612155565b15611f7a578373ffffffffffffffffffffffffffffffffffffffff1663150b7a02611e3a61135f565b8786866040518563ffffffff1660e01b8152600401611e5c949392919061300a565b602060405180830381600087803b158015611e7657600080fd5b505af1925050508015611ea757506040513d601f19601f82011682018060405250810190611ea491906124ac565b60015b611f2a573d8060008114611ed7576040519150601f19603f3d011682016040523d82523d6000602084013e611edc565b606091505b50600081511415611f22576040517f08c379a0000000000000000000000000000000000000000000000000000000008152600401611f19906130d1565b60405180910390fd5b805181602001fd5b63150b7a0260e01b7bffffffffffffffffffffffffffffffffffffffffffffffffffffffff1916817bffffffffffffffffffffffffffffffffffffffffffffffffffffffff191614915050611f7f565b600190505b949350505050565b600073ffffffffffffffffffffffffffffffffffffffff168273ffffffffffffffffffffffffffffffffffffffff161415611ff7576040517f08c379a0000000000000000000000000000000000000000000000000000000008152600401611fee906131f1565b60405180910390fd5b612000816112f3565b15612040576040517f08c379a0000000000000000000000000000000000000000000000000000000008152600401612037906130f1565b60405180910390fd5b61204c60008383611d90565b6001600360008473ffffffffffffffffffffffffffffffffffffffff1673ffffffffffffffffffffffffffffffffffffffff168152602001908152602001600020600082825461209c91906133a5565b92505081905550816002600083815260200190815260200160002060006101000a81548173ffffffffffffffffffffffffffffffffffffffff021916908373ffffffffffffffffffffffffffffffffffffffff160217905550808273ffffffffffffffffffffffffffffffffffffffff16600073ffffffffffffffffffffffffffffffffffffffff167fddf252ad1be2c89b69c2b068fc378daa952ba7f163c4a11628f55a4df523b3ef60405160405180910390a45050565b600080823b905060008111915050919050565b82805461217490613570565b90600052602060002090601f01602090048101928261219657600085556121dd565b82601f106121af57805160ff19168380011785556121dd565b828001600101855582156121dd579182015b828111156121dc5782518255916020019190600101906121c1565b5b5090506121ea91906121ee565b5090565b5b808211156122075760008160009055506001016121ef565b5090565b600061221e6122198461331d565b6132ec565b90508281526020810184848401111561223657600080fd5b61224184828561352e565b509392505050565b600081359050612258816136e9565b92915050565b60008135905061226d81613700565b92915050565b60008135905061228281613717565b92915050565b60008151905061229781613717565b92915050565b600082601f8301126122ae57600080fd5b81356122be84826020860161220b565b91505092915050565b6000813590506122d68161372e565b92915050565b6000602082840312156122ee57600080fd5b60006122fc84828501612249565b91505092915050565b6000806040838503121561231857600080fd5b600061232685828601612249565b925050602061233785828601612249565b9150509250929050565b60008060006060848603121561235657600080fd5b600061236486828701612249565b935050602061237586828701612249565b9250506040612386868287016122c7565b9150509250925092565b600080600080608085870312156123a657600080fd5b60006123b487828801612249565b94505060206123c587828801612249565b93505060406123d6878288016122c7565b925050606085013567ffffffffffffffff8111156123f357600080fd5b6123ff8782880161229d565b91505092959194509250565b6000806040838503121561241e57600080fd5b600061242c85828601612249565b925050602061243d8582860161225e565b9150509250929050565b6000806040838503121561245a57600080fd5b600061246885828601612249565b9250506020612479858286016122c7565b9150509250929050565b60006020828403121561249557600080fd5b60006124a384828501612273565b91505092915050565b6000602082840312156124be57600080fd5b60006124cc84828501612288565b91505092915050565b6000602082840312156124e757600080fd5b60006124f5848285016122c7565b91505092915050565b612507816134ba565b82525050565b612516816134cc565b82525050565b600061252782613362565b6125318185613378565b935061254181856020860161353d565b61254a816136d8565b840191505092915050565b60006125608261336d565b61256a8185613389565b935061257a81856020860161353d565b612583816136d8565b840191505092915050565b60006125998261336d565b6125a3818561339a565b93506125b381856020860161353d565b80840191505092915050565b600081546125cc81613570565b6125d6818661339a565b945060018216600081146125f1576001811461260257612635565b60ff19831686528186019350612635565b61260b8561334d565b60005b8381101561262d5781548189015260018201915060208101905061260e565b838801955050505b50505092915050565b600061264b603283613389565b91507f4552433732313a207472616e7366657220746f206e6f6e20455243373231526560008301527f63656976657220696d706c656d656e74657200000000000000000000000000006020830152604082019050919050565b60006126b1601c83613389565b91507f4552433732313a20746f6b656e20616c7265616479206d696e746564000000006000830152602082019050919050565b60006126f1600a8361339a565b91507f54484952445f574f5244000000000000000000000000000000000000000000006000830152600a82019050919050565b6000612731602483613389565b91507f4552433732313a207472616e7366657220746f20746865207a65726f2061646460008301527f72657373000000000000000000000000000000000000000000000000000000006020830152604082019050919050565b6000612797601983613389565b91507f4552433732313a20617070726f766520746f2063616c6c6572000000000000006000830152602082019050919050565b60006127d7600b8361339a565b91507f5345434f4e445f574f52440000000000000000000000000000000000000000006000830152600b82019050919050565b6000612817602c83613389565b91507f4552433732313a206f70657261746f7220717565727920666f72206e6f6e657860008301527f697374656e7420746f6b656e00000000000000000000000000000000000000006020830152604082019050919050565b600061287d600d8361339a565b91507f3c2f746578743e3c2f7376673e000000000000000000000000000000000000006000830152600d82019050919050565b60006128bd603883613389565b91507f4552433732313a20617070726f76652063616c6c6572206973206e6f74206f7760008301527f6e6572206e6f7220617070726f76656420666f7220616c6c00000000000000006020830152604082019050919050565b6000612923602a83613389565b91507f4552433732313a2062616c616e636520717565727920666f7220746865207a6560008301527f726f2061646472657373000000000000000000000000000000000000000000006020830152604082019050919050565b6000612989602983613389565b91507f4552433732313a206f776e657220717565727920666f72206e6f6e657869737460008301527f656e7420746f6b656e00000000000000000000000000000000000000000000006020830152604082019050919050565b60006129ef602e83613389565b91507f45524337323155524953746f726167653a2055524920736574206f66206e6f6e60008301527f6578697374656e7420746f6b656e0000000000000000000000000000000000006020830152604082019050919050565b6000612a5560028361339a565b91507f227d0000000000000000000000000000000000000000000000000000000000006000830152600282019050919050565b6000612a95602083613389565b91507f4552433732313a206d696e7420746f20746865207a65726f20616464726573736000830152602082019050919050565b6000612ad5603183613389565b91507f45524337323155524953746f726167653a2055524920717565727920666f722060008301527f6e6f6e6578697374656e7420746f6b656e0000000000000000000000000000006020830152604082019050919050565b6000612b3b602c83613389565b91507f4552433732313a20617070726f76656420717565727920666f72206e6f6e657860008301527f697374656e7420746f6b656e00000000000000000000000000000000000000006020830152604082019050919050565b6000612ba1602983613389565b91507f4552433732313a207472616e73666572206f6620746f6b656e2074686174206960008301527f73206e6f74206f776e00000000000000000000000000000000000000000000006020830152604082019050919050565b6000612c07602f83613389565b91507f4552433732314d657461646174613a2055524920717565727920666f72206e6f60008301527f6e6578697374656e7420746f6b656e00000000000000000000000000000000006020830152604082019050919050565b6000612c6d600a8361339a565b91507f7b226e616d65223a2022000000000000000000000000000000000000000000006000830152600a82019050919050565b6000612cad602183613389565b91507f4552433732313a20617070726f76616c20746f2063757272656e74206f776e6560008301527f72000000000000000000000000000000000000000000000000000000000000006020830152604082019050919050565b6000612d13600a8361339a565b91507f46495253545f574f5244000000000000000000000000000000000000000000006000830152600a82019050919050565b6000612d53601d8361339a565b91507f646174613a6170706c69636174696f6e2f6a736f6e3b6261736536342c0000006000830152601d82019050919050565b6000612d93603183613389565b91507f4552433732313a207472616e736665722063616c6c6572206973206e6f74206f60008301527f776e6572206e6f7220617070726f7665640000000000000000000000000000006020830152604082019050919050565b6000612df9605d8361339a565b91507f222c20226465736372697074696f6e223a20225468652073757065722072617260008301527f6520627265616b6661737420636f6c6c656374696f6e222c2022696d6167652260208301527f3a2022646174613a696d6167652f7376672b786d6c3b6261736536342c0000006040830152605d82019050919050565b612e8181613524565b82525050565b6000612e93828461258e565b915081905092915050565b6000612eaa828561258e565b9150612eb6828461258e565b91508190509392505050565b6000612ece828661258e565b9150612eda828561258e565b9150612ee6828461258e565b9150819050949350505050565b6000612eff82856125bf565b9150612f0b828461258e565b9150612f1682612870565b91508190509392505050565b6000612f2d826126e4565b9150612f39828461258e565b915081905092915050565b6000612f4f826127ca565b9150612f5b828461258e565b915081905092915050565b6000612f7182612c60565b9150612f7d828561258e565b9150612f8882612dec565b9150612f94828461258e565b9150612f9f82612a48565b91508190509392505050565b6000612fb682612d06565b9150612fc2828461258e565b915081905092915050565b6000612fd882612d46565b9150612fe4828461258e565b915081905092915050565b600060208201905061300460008301846124fe565b92915050565b600060808201905061301f60008301876124fe565b61302c60208301866124fe565b6130396040830185612e78565b818103606083015261304b818461251c565b905095945050505050565b600060208201905061306b600083018461250d565b92915050565b6000602082019050818103600083015261308b8184612555565b905092915050565b600060608201905081810360008301526130ad8186612555565b90506130bc6020830185612e78565b6130c960408301846124fe565b949350505050565b600060208201905081810360008301526130ea8161263e565b9050919050565b6000602082019050818103600083015261310a816126a4565b9050919050565b6000602082019050818103600083015261312a81612724565b9050919050565b6000602082019050818103600083015261314a8161278a565b9050919050565b6000602082019050818103600083015261316a8161280a565b9050919050565b6000602082019050818103600083015261318a816128b0565b9050919050565b600060208201905081810360008301526131aa81612916565b9050919050565b600060208201905081810360008301526131ca8161297c565b9050919050565b600060208201905081810360008301526131ea816129e2565b9050919050565b6000602082019050818103600083015261320a81612a88565b9050919050565b6000602082019050818103600083015261322a81612ac8565b9050919050565b6000602082019050818103600083015261324a81612b2e565b9050919050565b6000602082019050818103600083015261326a81612b94565b9050919050565b6000602082019050818103600083015261328a81612bfa565b9050919050565b600060208201905081810360008301526132aa81612ca0565b9050919050565b600060208201905081810360008301526132ca81612d86565b9050919050565b60006020820190506132e66000830184612e78565b92915050565b6000604051905081810181811067ffffffffffffffff82111715613313576133126136a9565b5b8060405250919050565b600067ffffffffffffffff821115613338576133376136a9565b5b601f19601f8301169050602081019050919050565b60008190508160005260206000209050919050565b600081519050919050565b600081519050919050565b600082825260208201905092915050565b600082825260208201905092915050565b600081905092915050565b60006133b082613524565b91506133bb83613524565b9250827fffffffffffffffffffffffffffffffffffffffffffffffffffffffffffffffff038211156133f0576133ef61361c565b5b828201905092915050565b600061340682613524565b915061341183613524565b9250826134215761342061364b565b5b828204905092915050565b600061343782613524565b915061344283613524565b9250817fffffffffffffffffffffffffffffffffffffffffffffffffffffffffffffffff048311821515161561347b5761347a61361c565b5b828202905092915050565b600061349182613524565b915061349c83613524565b9250828210156134af576134ae61361c565b5b828203905092915050565b60006134c582613504565b9050919050565b60008115159050919050565b60007fffffffff0000000000000000000000000000000000000000000000000000000082169050919050565b600073ffffffffffffffffffffffffffffffffffffffff82169050919050565b6000819050919050565b82818337600083830152505050565b60005b8381101561355b578082015181840152602081019050613540565b8381111561356a576000848401525b50505050565b6000600282049050600182168061358857607f821691505b6020821081141561359c5761359b61367a565b5b50919050565b60006135ad82613524565b91507fffffffffffffffffffffffffffffffffffffffffffffffffffffffffffffffff8214156135e0576135df61361c565b5b600182019050919050565b60006135f682613524565b915061360183613524565b9250826136115761361061364b565b5b828206905092915050565b7f4e487b7100000000000000000000000000000000000000000000000000000000600052601160045260246000fd5b7f4e487b7100000000000000000000000000000000000000000000000000000000600052601260045260246000fd5b7f4e487b7100000000000000000000000000000000000000000000000000000000600052602260045260246000fd5b7f4e487b7100000000000000000000000000000000000000000000000000000000600052604160045260246000fd5b6000601f19601f8301169050919050565b6136f2816134ba565b81146136fd57600080fd5b50565b613709816134cc565b811461371457600080fd5b50565b613720816134d8565b811461372b57600080fd5b50565b61373781613524565b811461374257600080fd5b5056fe4142434445464748494a4b4c4d4e4f505152535455565758595a6162636465666768696a6b6c6d6e6f707172737475767778797a303132333435363738392b2f416e204e4654207769746820494420257320686173206265656e206d696e74656420746f202573a2646970667358221220052e8dccd1231047f9dca02108bbb56adc083559e5642251dad7678142cd056464736f6c6343000800003354686973206973206d79206669727374204e465420636f6e7472616374212057686f61213c73766720786d6c6e733d27687474703a2f2f7777772e77332e6f72672f323030302f73766727207072657365727665417370656374526174696f3d27784d696e594d696e206d656574272076696577426f783d273020302033353020333530273e3c7374796c653e2e62617365207b2066696c6c3a2077686974653b20666f6e742d66616d696c793a2073657269663b20666f6e742d73697a653a20323470783b207d3c2f7374796c653e3c726563742077696474683d273130302527206865696768743d2731303025272066696c6c3d27626c61636b27202f3e3c7465787420783d273530252720793d273530252720636c6173733d27626173652720646f6d696e616e742d626173656c696e653d276d6964646c652720746578742d616e63686f723d276d6964646c65273e",
  "linkReferences": {},
  "deployedLinkReferences": {}
}